:020000040040BA
:10000000C82F4020C50D4000C30D4000C30D400067
:10001000C30D4000C30D4000C30D400000000000B0
:100020000000000000000000000000009D114000E2
:10003000C30D4000000000003D124000A51240002A
:10004000C30D4000C30D4000C30D4000C30D400070
:10005000C30D4000C30D4000C30D4000C30D400060
:10006000C30D400000000000AD0A4000C10A40007E
:10007000D50A4000C30D4000C30D4000C30D400031
:10008000E90A4000FD0A4000C30D4000C30D4000D6
:10009000C30D4000C30D4000C30D4000C30D400020
:1000A000C30D4000C30D4000C30D4000C30D400010
:1000B000C30D400065074000C30D4000C30D400064
:1000C000C30D4000C30D4000C30D4000C30D4000F0
:1000D00000000000C30D400000000000C30D400000
:1000E00079074000C30D4000C30D4000C30D400020
:1000F000C30D4000C30D4000C30D4000C30D4000C0
:10010000C30D4000C30D4000C30D4000C30D4000AF
:10011000C30D4000000000000000000000000000CF
:10012000C30D4000C30D4000C30D4000C30D40008F
:10013000C30D400000000000C30D4000C30D40008F
:1001400010B5054C237833B9044B13B10448AFF311
:1001500000800123237010BD100B40200000000020
:10016000ECA840000C4B43B10C480D4910B5AFF35F
:1001700000800C48036823B910BD0A48036833B9EE
:100180007047094B002BF7D0BDE810401847064BCD
:10019000002BF5D0184700BF00000000ECA840007D
:1001A000140B4020ECA840000000000010B51048DF
:1001B000104B98473E2100200F4B98470F4CA0470B
:1001C0000028FCD00E4B98470E4A0F4B9A620F4CFA
:1001D000A0470028FCD002200D4B984700200D4B73
:1001E00098470D4B98470248024B984710BD00BFF7
:1001F00000A3E111990F4000AD0B4000010C40003D
:10020000110C4000013F182000060E40210C400058
:10021000110B4000490B40008D0E4000002A54D0C5
:100220002DE9F84F924606460F468A44DFF8B8801B
:10023000274DDFF8B89006E021464046A847002841
:10024000FAD1BA453ED017F8014B4645F4D04E4599
:1002500016D0204B9E4219D01F4B9E421CD01F4BE4
:100260009E421FD01E4B9E4224D01E4B9E42E8D180
:10027000DFF87CB021461B48D8470028FAD1E0E7D8
:1002800021464846A8470028FAD1DAE72146114816
:10029000A8470028FAD1D4E721460F48A8470028EC
:1002A000FAD1CEE7DFF848B021460C48D8470028FD
:1002B000FAD1C6E7DFF838B021460948D847002808
:1002C000FAD1BEE70020BDE8F88F0020704700BFDC
:1002D000850C4000001A0E40001C0E4000400240F9
:1002E0000080024000C0024000080E40000A0E409C
:1002F000950D40002DE9F04180B90C469046002A4A
:100300000FDD8F18084E094D306821462B6898473D
:100310000134BC42F8D14046BDE8F0814FF0FF38CF
:10032000F9E78046F7E700BFC00E4020B80E402036
:100330000138022815D82DE9F0410E4614469AB12D
:100340000D46DFF838800C4FD8F8000015F8011B77
:100350003B68984700280ADBA81B013CF4D1BDE8A4
:10036000F0814FF0FF3070471046BDE8F0814FF04C
:10037000FF30BDE8F08100BFBC0E4020C00E402021
:10038000F8B54FF400425C4B5A60BFF34F8FBFF398
:100390006F8F5A4B0022C3F850225A6942F4003240
:1003A0005A61BFF34F8FBFF36F8FD3F88070C7F3DD
:1003B0004E3607F007000430C7F3C907B7FA87FEC7
:1003C0000EF01F0EBFF34F8F4FF0FF3404FA00FC06
:1003D00006FA00F004FA0EF407FA0EFE1D463A463D
:1003E000734640EA0301C5F86012013A2344B2F1B2
:1003F000FF3FF6D1013E6044B6F1FF3FEFD1BFF3BE
:100400004F8F3E4B5A6942F480325A61BFF34F8F8F
:10041000BFF36F8F3A4A3B495160A1F5807151603B
:10042000BFF34F8FBFF36F8FD3F8902222F00102FA
:10043000C3F89022D3F8942222F00102C3F8942248
:10044000BFF34F8FBFF36F8F0A202F4CA0470B20B5
:10045000A0470C20A0471020A0471120A0472B4BFD
:100460004FF480721A61C3F8A0201A63A3F5806369
:100470004FF400625A61C3F8A0205A66C3F8902076
:100480005A651A62C3F88420196F21F40061196754
:10049000596F21F400615967C3F8C020C3F8D42014
:1004A000C3F8B0204FF400121A66C3F890205A65C2
:1004B0005A62C3F88020196F21F400111967596F2F
:1004C00021F4001159675A60114AD2F8143143F0EF
:1004D0001003C2F814310F4B10221A66C3F8902093
:1004E0005A655A62C3F88020196F11431967596F12
:1004F000114359675A60F8BD50180E4000ED00E0F6
:10050000000C0E400C08005A310C400000120E4046
:100510000080084000100E4070B582B0026BC36AC4
:100520001340019300241C4E1C4DA84214BF002010
:10053000012005010BE00E2C1ED8019A04F10C01DC
:1005400001238B40134210D10134102C22D00B2CEC
:10055000F1D8019A0123A3401342F5D02B1956F884
:100560002330002BF0D09847EEE72B1956F82330B4
:10057000002BE9D09847E7E7019A04F10F01012326
:100580008B401342E0D02B1956F82330002BDBD0E0
:100590009847D9E702B070BDC40E40200040064025
:1005A00030B4046E01238B4024EA03041578002D37
:1005B00008BF002323430366446D4B000321994089
:1005C00024EA0104517899402143416530BC7047C9
:1005D00000220260084B4360084B83604FF4802385
:1005E000C36002230374012343748374C2740375CC
:1005F00043758375704700BF00A3E111808D5B00D8
:10060000002303700123437070470000026B12F057
:10061000807201D01920704710B401230360CB7C95
:10062000002B18BF4FF000424B688C68B3FBF4F30B
:10063000013B1B029BB2CC6844F4000423430C7CB6
:10064000240604F0706423434C7C240704F04054D7
:100650002343134343600B7D002B14BF4FF0807383
:1006600000230A6813434A7D002A14BF4FF000722A
:100670000022134383608B7D1B0203F4407343F01D
:100680000C03C0F894300F4B984206D00E4B9842A2
:100690000DD000205DF8044B70470C4B03F1400176
:1006A000002243F8042F8B42FBD10020F2E7084BD5
:1006B00003F14001002243F8042B8B42FBD10020C0
:1006C000E8E700BF00C0034000400640C00E4020E5
:1006D000040F40200C4B994207D00B290BD806D0B1
:1006E000012303FA01F141627047436270474FF4FE
:1006F0000063436270470E2994BF0C310F31012310
:1007000003FA01F141627047FF0F004738B5114C01
:10071000A0420CBF102400240C440F4D45F82420A7
:100720000AD10E4A4FF48074C2F884415B01DBB2F7
:1007300082F82833546009E0084A4FF00054C2F8A8
:1007400080415B01DBB282F81D331460044B984793
:1007500038BD00BF00400640C40E402000E100E06C
:10076000D506400008B50248024B984708BD00BFB7
:1007700000C003401905400008B50248024B9847E5
:1007800008BD00BF004006401905400000B583B019
:10079000134B98420CBF28201D20124B9847124B38
:1007A0009B78FF2B1AD0EFF31083B3FA83F35B0926
:1007B000019372B6BFF35F8F00220C4B1A70019940
:1007C000094A93780133937029B10122074B1A70BB
:1007D000BFF35F8F62B603B05DF804FBFEE700BFB6
:1007E00000400640310C4000B00E40200A0040207E
:1007F000C0F8841053004FF40042B2FBF3F2013A08
:10080000C2F30D02C0F88C2070470163704741634A
:10081000704721F00061B1F1405F05D1836B134255
:1008200014BF012000207047C36BF8E74264B1F1A8
:10083000C05F3AD013D8B1F1006F25D0B1F1805F1D
:100840000AD1036F13430367436F416F0B4023EAE1
:1008500002034367426070470029FBD17047B1F142
:10086000205F21D009D8B1F1005FF3D1036F1343AA
:100870000367436F13434367ECE7B1F1405F13D065
:10088000B1F1605F10D0E5E710B4016F046FD3439E
:1008900021401C4619400167436F416F0B402340C4
:1008A000436742605DF8044B7047036F016F0B4074
:1008B00023EA02030367436F13434367CAE74164B4
:1008C00012F0010F0DD1016612F00A0F0BD0016278
:1008D00012F0020F09D112F0080F08D0C0F88410EE
:1008E00005E04166F0E74162F2E7C0F8801041613F
:1008F0000160704710B4019C41644CB901664BB172
:1009000001654AB94163016101605DF8044B7047BC
:100910004166F4E74165F4E70163F4E770B582B03E
:10092000054616461C46B1F1005F14D00AD9B1F154
:10093000405F24D0B1F1605F21D0B1F1205F17D0CA
:1009400000201AE0B1F1805F05D0B1F1C05F02D0A4
:10095000B1F1006FF4D132462846114B984714F09C
:10096000010F02D12E66012007E06E66012004E02F
:100970001A4631460B4B9847012002B070BD04F077
:1009800001030093C4F38003B1F1605F14BF002240
:10099000012231462846044CA0470120EDE700BF64
:1009A0002D084000BF084000F508400012F0100F6D
:1009B00012D0C0F8B01012F0200F07D0C0F8D41039
:1009C00012F0400F05D0C0F8C0107047C0F8D0102A
:1009D000F6E7C0F8C4107047C0F8B410704701645F
:1009E0007047C06C7047806C704700002DE9F04183
:1009F00004460F460E4B9847054620460D4B984738
:100A0000054013D00C4C04F5F87803E044450DD0B4
:100A100010345DB12068B842F8D161682942F5D040
:100A2000E3689847636825EA0305EFE7BDE8F081CE
:100A3000E3094000E70940002C0B4020F8B5184CB2
:100A400026681F2E2AD84FF0000C6446154F04E08C
:100A50000134E4B2A446A64209D3A64625017D5935
:100A60008D42F5D107EB04156D689542F0D10D4D1F
:100A70004FEA0E1E05EB0E0445F80E106260A360EF
:100A80000699E1600136664505D011461A46064BC7
:100A900098470020F8BD02490E60F6E70120F8BD36
:100AA0002C0D40202C0B4020AD09400008B50A2138
:100AB0000148024B984708BD000E0E40ED0940006A
:100AC00008B50B210148024B984708BD00100E40A5
:100AD000ED09400008B50C210148024B984708BDBC
:100AE00000120E40ED09400008B510210148024BEC
:100AF000984708BD00140E40ED09400008B51121CB
:100B00000148024B984708BD00160E40ED09400011
:100B1000032811D0042812D002280CBF4FF4807192
:100B20000021084A136B23F440730B431363936E45
:100B300013F0080FFBD070474FF44071F1E74FF40A
:100B40000071EEE700060E40174A136B23F07003A6
:100B500018431063936E13F0080F0AD14FF48053BB
:100B600011498A6E12F0080F03D1013BF9D101201F
:100B700070470D4A136B23F0030343F00203136322
:100B8000936E13F0080F0AD14FF4805306498A6E12
:100B900012F0080F05D1013BF9D101207047002068
:100BA00070470020704700BF00060E40A0B90E48F5
:100BB000036A090289B20D4A1A400D4B13431943C7
:100BC00001620246936E13F0010FFBD0064A116AD0
:100BD000084B0B431362704703490B6A064A1A40DD
:100BE000064B13430B62704700060E40FCFFC8FF24
:100BF0000100370000003701FCFFC8FE020037018A
:100C0000024B986E00F48030704700BF00060E4023
:100C10004FF00052014B9A62704700BF00060E4031
:100C2000024B986E00F00200704700BF00060E40B5
:100C30003F281ED81F280CD8114B9A6901238340E6
:100C4000934318D0012303FA00F00D4B18610020E4
:100C5000704720380A4BD3F808210123834093437F
:100C60000BD0012303FA00F0054BC3F8000100206C
:100C7000704701207047002070470020704700BF78
:100C800000060E40436913F0020F02D0C16100203C
:100C9000704701207047436913F0010F03D0836947
:100CA0000B70002070470120704710B40B01934275
:100CB00014D9C9004B0803EBC202B2FBF1F2D3080E
:100CC0005C1E4FF6FE718C4201D9012017E041688D
:100CD00041F4002141600CE0012010E0590801EBD3
:100CE000C202B2FBF3F2D3085C1E4FF6FE718C42D7
:100CF000F2D8120402F4E0221A43026200205DF8E6
:100D0000044B7047084BC0F8E43000234360436253
:100D1000836288230360242303604FF4807303609D
:100D20004FF40023036070470041535570B50546EA
:100D30000C4616460F4B984700220F4B1A60A4B181
:100D40003246216828460D4B9847024678B96368B9
:100D5000A1680B4321690B43E1680B4306490B6013
:100D600069680B436B60104670BD0122FBE70122EE
:100D7000F9E700BF050D4000300D4020AB0C4000EE
:100D80004023036070471023036070474069C0F33D
:100D900040007047436913F0020F04D0C1F308010B
:100DA000C1610020704701207047436913F0010FB3
:100DB00005D08369C3F308030B600020704701204E
:100DC0007047FEE700B583B0254B264A9A4210D003
:100DD000254B234A9A420CD2013B9B1A23F0030372
:100DE000043313441F4951F8040B42F8040B9A4290
:100DF000F9D11E4B1E4A9A420AD2013B9B1A23F09C
:100E0000030304331344002142F8041B9342FBD133
:100E1000184A194B23F07F039360EFF31083B3FA62
:100E200083F35B09019372B6BFF35F8F0022134B0C
:100E30001A700199124A136843F470031360BFF3E8
:100E40004F8FBFF36F8F29B101220C4B1A70BFF384
:100E50005F8F62B60B4B98470B4B9847FEE700BF7E
:100E600000004020ECA84000100B4020C80F40209C
:100E7000100B402000ED00E0000040000A00402080
:100E800088ED00E03D484000613E40003B4B1B6B5D
:100E900003F00303012B1DD083B1022B36D0374B57
:100EA0001B6B03F07003702B5FD0344B1A6B34490B
:100EB000C2F302120B68D3400B607047314B5B6981
:100EC00013F0800F14BF4FF400424FF4FA422C4B42
:100ED0001A60E4E7294B1B6A13F0807F03D02A4A8B
:100EE000274B1A60DBE7294A254B1A60234B1B6A04
:100EF00003F07003102B05D0202BD0D1224A204BB9
:100F00001A60CCE7224A1E4B1A60C8E71B4B1B6ACB
:100F100013F0807F16D01C4A194B1A60174B1B6BBD
:100F200003F00303022BBAD1144A916A926A14485F
:100F3000C1F30A41036801FB0333D2B2B3FBF2F3FE
:100F40000360ACE7114A0E4B1A600C4B1B6A03F0AE
:100F50007003102B05D0202BE0D10B4A084B1A60F0
:100F6000DCE70B4A064B1A60D8E7054A13680949C3
:100F7000A1FB03135B081360704700BF00060E401F
:100F80000C00402010180E40001BB70000093D0067
:100F900000127A00ABAAAAAA164B984213D9164B94
:100FA000984215D9154B984216D9154B984217D926
:100FB000144B984218D9144B984294BF134A144AC0
:100FC000144B1A6070474FF08062124B1A607047E2
:100FD000114A104B1A607047104A0E4B1A60704746
:100FE0000F4A0C4B1A6070474FF00422094B1A60ED
:100FF000704700BFBFF35E017FE7BD023FDB1C040B
:10100000FFCE7B05BFC2DA067FB6390800050004B3
:1010100000060004000C0E40000100040002000461
:10102000000300040A4B1B6853B1094B1B681A18D4
:101030000849914208DB1046054A1060184670477F
:10104000054A034B1A60F0E74FF0FF30704700BFCE
:10105000340D4020FCFF4520C83140204FF0FF30C8
:1010600070474FF400534B600020704701207047D9
:101070000020704700F1080343604FF0FF328260A8
:10108000C36003610023036070470023036170475E
:1010900043684B609A688A609A68516099600861F9
:1010A000036801330360704730B40D68B5F1FF3F4A
:1010B00002D000F1080202E0026904E01A46536817
:1010C0001C68A542FAD253684B6099608A605160EF
:1010D000086103680133036030BC704703694268EC
:1010E000816891608268416851605A68904205D079
:1010F00000220261186801381860704782685A60DF
:10110000F6E700000D4B1B68B3F1FF3F0AD04FF02C
:10111000800372B683F31188BFF36F8FBFF34F8FD5
:1011200062B6FEE74FF0800372B683F31188BFF317
:101130006F8FBFF34F8F62B6FEE700BF10004020F5
:1011400006480068006880F3088862B661B6BFF39D
:101150004F8FBFF36F8F00DF00BF000008ED00E08E
:10116000DFF80C00016841F4700101607047000075
:1011700088ED00E04FF0807340F8043C40F8081C14
:10118000054B40F80C3C40F8202C6FF0020340F86F
:10119000243C4438704700BF05114000064B1968D5
:1011A0000868B0E8F04F80F30988BFF36F8F4FF005
:1011B000000080F311887047400D4020704700BF49
:1011C0004FF0800372B683F31188BFF36F8FBFF3C4
:1011D0004F8F62B60B4A136801331360012B0FD196
:1011E000094B1B6813F0FF0F0AD04FF0800372B653
:1011F00083F31188BFF36F8FBFF34F8F62B6FEE7A3
:10120000704700BF1000402004ED00E00A4B1B684F
:1012100053B94FF0800372B683F31188BFF36F8F19
:10122000BFF34F8F62B6FEE7013B034A13600BB971
:1012300083F31188704700BF10004020EFF309804E
:10124000BFF36F8F154B1A681EF0100F08BF20ED0B
:10125000108A20E9F04F10604DF8043D4FF08000F7
:1012600072B680F31188BFF34F8FBFF36F8F62B6F2
:1012700001F0FEF84FF0000080F3118808BC1968F7
:101280000868B0E8F04F1EF0100F08BFB0EC108AED
:1012900080F30988BFF36F8F704700BF400D402077
:1012A000704700BF08B5EFF311834FF0800272B6AC
:1012B00082F31188BFF36F8FBFF34F8F62B6054B78
:1012C000984718B14FF08052034B1A60002383F304
:1012D000118808BDDD20400004ED00E0034A044B06
:1012E0001A600722043B1A60704700BFBF2709003D
:1012F00014E000E000B583B0254B1A78D2B2019219
:10130000FF221A701B78DBB28DF803309DF8033092
:1013100003F080031F4A137007221F4B1A609DF8C9
:10132000033013F0800F10D0062200E00A469DF82B
:1013300003305B00DBB28DF803309DF80330511EA3
:1013400013F0800FF2D1144B1A60134A13681B027A
:1013500003F4E0631360019BDBB20D4A13700F4B83
:101360001A6842F460021A601A6842F060421A6019
:101370000B4B984700220B4B1A600B4B98470B4ABC
:10138000136843F040431360094B9847094B984753
:1013900000E400E0380D40203C0D402020ED00E04E
:1013A000DD124000100040206111400034EF00E0E9
:1013B0004111400005114000EFF305830F2B11D9B7
:1013C000124A9B5CDBB2124A12789A420AD94FF059
:1013D000800372B683F31188BFF36F8FBFF34F8F13
:1013E00062B6FEE70B4B1B6803F4E0630A4A12681F
:1013F00093420AD94FF0800372B683F31188BFF38A
:101400006F8FBFF34F8F62B6FEE77047F0E300E0E7
:10141000380D40200CED00E03C0D402010B5044696
:10142000064B98472046064B98470446054B98477D
:101430000CB1204610BD044B9847FAE7C12040008C
:10144000B5484000292240002F33400048B110B574
:101450000446044B98472046034B9847034B984754
:1014600010BD7047C1204000C548400029224000FF
:1014700038B504461546026C5AB90368002B2ED1C4
:1014800040681B4B984700236360A36B0133A36341
:1014900038BD6DB98068174B9847A368226C134418
:1014A000A360626893421CD32368A3600020ECE72A
:1014B000C068104B9847236C5B42E2681A44E260B4
:1014C00021688A4202D262681344E360022D0AD185
:1014D000A36B53B1A36B013BA3630020D5E70020AE
:1014E000D3E70020D1E70020CFE70020CDE700BF01
:1014F00071284000354E400030B583B00190446DF6
:1015000074B1A26BE36B9A4215D34FF0800372B6AD
:1015100083F31188BFF36F8FBFF34F8F62B6FEE77F
:101520004FF0800372B683F31188BFF36F8FBFF360
:101530004F8F62B6FEE7A26B934203D80025284680
:1015400003B030BD0A4601A920460B4B984705461B
:10155000A36CB3F1FF3F0AD1636A002BEFD004F113
:101560002400064B9847002818BF0125E7E7A36C25
:101570000133A364E3E700BF711440004526400037
:10158000026C72B110B50346C4681444C46040686C
:10159000844201D31868D8600846D968014B98473F
:1015A00010BD7047354E4000F8B50446224B9847B1
:1015B000A36C002B1BDD214D214F224E0BE0636AF3
:1015C000ABB104F12400B04778B9A36C013BA3642C
:1015D000A36C002B0BDD636D002BF0D000212046A7
:1015E000A8470128F1D1B847EFE7B847EDE74FF03A
:1015F000FF33A364144B98470F4B9847636C002B41
:1016000014DD236993B104F110060E4D0C4F07E071
:10161000636C013B6364636C002B07DD23692BB1B2
:101620003046A8470028F3D0B847F1E74FF0FF3322
:101630006364054B9847F8BDC1114000F9144000A0
:10164000A1274000452640000D12400038B508B3E0
:1016500004460D461D4B98472268216CE36B03FB43
:1016600001F3D01860600020A063A2605B1A1344ED
:10167000E3604FF0FF336364A364FDB923692BB1CA
:1016800004F11000124B984701280ED0114B9847D7
:10169000012038BD4FF0800372B683F31188BFF389
:1016A0006F8FBFF34F8F62B6FEE74FF080520A4B49
:1016B0001A60BFF34F8FBFF36F8FE7E704F110009D
:1016C000064DA84704F12400A847DFE7C1114000F8
:1016D000452640000D12400004ED00E0751040006A
:1016E000F8B550B94FF0800372B683F31188BFF399
:1016F0006F8FBFF34F8F62B6FEE7064617460D4663
:1017000089B101FB00F05930124B98470446E8B903
:101710004FF0800372B683F31188BFF36F8FBFF36E
:101720004F8F62B6FEE758200A4B984704460028C0
:10173000EED02060E663256401212046064B9847E1
:1017400084F85070002363652046F8BD00F158030B
:101750000360EFE71D1440004D1640002DE9F04FE7
:1017600085B00192B8B1044601B3022B2CD01D46BE
:101770008846664B9847002834D1019B002B38D00F
:101780004FF0800372B683F31188BFF36F8FBFF3FE
:101790004F8F62B6FEE74FF0800372B683F3118875
:1017A000BFF36F8FBFF34F8F62B6FEE7026C002A64
:1017B000DBD04FF0800372B683F31188BFF36F8FD5
:1017C000BFF34F8F62B6FEE7E26B012ACFD04FF036
:1017D000800372B683F31188BFF36F8FBFF34F8F0F
:1017E00062B6FEE700274A4EDFF850A1DFF82C91E1
:1017F00042E00027F7E72A4641462046454B9847F6
:10180000636D9BB129462046434B9847012807D179
:101810004FF08052414B1A60BFF34F8FBFF36F8F71
:101820003F4B9847012005B0BDE8F08F636A73B164
:1018300004F124003B4B98470128F1D14FF080522E
:10184000364B1A60BFF34F8FBFF36F8FE8E7002866
:10185000E6D04FF08052314B1A60BFF34F8FBFF389
:101860006F8FDDE72E4B98470020DCE720462E4B9C
:1018700098472E4B98470127B047A26BE36B9A42DB
:10188000B9D3022DB7D0019B002BEBD00FB902A822
:10189000D047234B9847264B9847B047636CB3F12A
:1018A000FF3F01D100236364A36CB3F1FF3F01D17B
:1018B0000023A3641A4B984701A902A81D4B98471F
:1018C000E0B9B047D4F838B0E76B154B9847BB4543
:1018D000CCD1019904F11000174B98472046124BC8
:1018E0009847124B98470028C5D14FF08053C9F84C
:1018F0000030BFF34F8FBFF36F8FBCE720460A4B1A
:1019000098470A4B984700208DE700BFAD2740005D
:10191000C111400071144000F914400004ED00E0D2
:101920000D12400045264000A91540002922400024
:10193000C12040000D27400041254000DD26400029
:10194000002836D02DE9F041044600293CD0022B76
:1019500048D01E4615468846354B9847EFF3118709
:101960004FF0800372B683F31188BFF36F8FBFF31C
:101970004F8F62B6A26BE36B9A4201D3022E4FD116
:101980003246414620462B4B9847A36CB3F1FF3FAC
:1019900041D1636D002B33D031462046264B98470A
:1019A000002D3FD001283DD1286087F31188BDE884
:1019B000F0814FF0800372B683F31188BFF36F8F0D
:1019C000BFF34F8F62B6FEE7006C0028BFD04FF028
:1019D000800372B683F31188BFF36F8FBFF34F8F0D
:1019E00062B6FEE7E06B0128B3D04FF0800372B619
:1019F00083F31188BFF36F8FBFF34F8F62B6FEE79B
:101A0000636A8BB104F124000C4B984775B168B13F
:101A100001202860C9E7A36C0133A3640120C4E757
:101A20000020C2E70120C0E70120BEE70120BCE79B
:101A3000B913400071144000F914400045264000DD
:101A400070B170B50446036CABB14FF0800372B651
:101A500083F31188BFF36F8FBFF34F8F62B6FEE73A
:101A60004FF0800372B683F31188BFF36F8FBFF31B
:101A70004F8F62B6FEE7036833B30D46254B984798
:101A8000EFF311864FF0800372B683F31188BFF332
:101A90006F8FBFF34F8F62B6A26BE36B9A4231D266
:101AA000A36B0133A363A36CB3F1FF3F25D1636D37
:101AB000C3B100212046184B98472DB3012823D1EC
:101AC000286086F3118870BD4368002BD5D04FF095
:101AD000800372B683F31188BFF36F8FBFF34F8F0C
:101AE00062B6FEE7636A8BB104F124000B4B9847A2
:101AF00075B168B101202860E3E7A36C0133A364EA
:101B00000120DEE70020DCE70120DAE70120D8E74A
:101B10000120D6E7B9134000F914400045264000E3
:101B20002DE9F04784B0019298B10446E1B198469E
:101B30000F46614B984728BB019B53B34FF080037E
:101B400072B683F31188BFF36F8FBFF34F8F62B606
:101B5000FEE74FF0800372B683F31188BFF36F8FF7
:101B6000BFF34F8F62B6FEE7026C002ADFD04FF062
:101B7000800372B683F31188BFF36F8FBFF34F8F6B
:101B800062B6FEE700264D4DDFF860A1DFF83C911C
:101B90004BE00026F7E7E56839462046484B984772
:101BA000B8F1000F1DD1A36B013BA363236813B9E8
:101BB000444B9847606023696BB104F11000424BBD
:101BC0009847012807D14FF08052404B1A60BFF36D
:101BD0004F8FBFF36F8F3E4B9847012004B0BDE895
:101BE000F087E560636A002BF5D004F12400364BE2
:101BF00098470028EFD04FF08052344B1A60BFF363
:101C00004F8FBFF36F8FE6E7314B98470020E5E732
:101C1000A84760682F4B98472D4B984730E02046E7
:101C20002D4B98472D4B98470126A847A36B002BB7
:101C3000B1D1019B002BE7D00EB902A8D047244BAD
:101C40009847274B9847A847636CB3F1FF3F01D1F2
:101C500000236364A36CB3F1FF3F01D10023A364AD
:101C60001B4B984701A902A81E4B9847E8B9A84703
:101C7000A66B174B9847002ED1D12368002BC7D0F5
:101C8000019904F12400184B98472046124B9847BD
:101C9000124B98470028C7D14FF08053C9F8003045
:101CA000BFF34F8FBFF36F8FBEE720460A4B9847B5
:101CB0000A4B9847002091E7AD274000C111400032
:101CC000811540002D2940004526400004ED00E02C
:101CD0000D124000CD274000A915400029224000E8
:101CE000C12040000D27400041254000DD26400076
:101CF00010B40B4B1B6853B10123094C54F833202B
:101D000032B10133082BF9D15DF8044B7047002341
:101D1000034A42F8331002EBC3035860F4E700BFF4
:101D2000440F402070B504460D4616460F4B9847A9
:101D3000636CB3F1FF3F0BD0A36CB3F1FF3F0AD04C
:101D40000B4B9847A36B4BB120460A4B984770BD8D
:101D500000236364F0E70023A364F1E732462946D9
:101D600004F12400044B9847EEE700BFC111400086
:101D70000D124000A9154000C5254000084B1B6806
:101D80001B683BB1064B1B68DB68DB685A68054B78
:101D90001A6070474FF0FF32024B1A60704700BF65
:101DA000440D4020F00D402010B50F4B1B685860CB
:101DB0000E4B1B6898420ED304460D4B18680A4B15
:101DC000196804310B4B98470B4B1B689C4201D29E
:101DD000094B1C6010BD094B1868034B196804318E
:101DE000044B984710BD00BF400D4020380E4020E6
:101DF000440D4020A9104000F00D4020480D402027
:101E00002DE9F04F83B00C9DDDF834A00E9E60B13B
:101E1000042D15D94FF0800372B683F31188BFF3F8
:101E20006F8FBFF34F8F62B6FEE74FF0800372B63D
:101E300083F31188BFF36F8FBFF34F8F62B6FEE756
:101E40000190984691460F4636B99000624B9847EC
:101E50000646002800F09E8058205F4B98470446B5
:101E6000002800F0948006634FEA8902A5213046DD
:101E70005A4B98476FF040464E44236B03EB860362
:101E800023F007063B7884F834303B78002B40F091
:101E90008480002784F83D70E562A564E76404F15E
:101EA00004094846DFF884B1D84704F11800D84740
:101EB0002461C5F10503A3616462276584F8547049
:101EC000424601993046464B98472060BAF1000FD0
:101ED00001D0CAF80040434B9847434A1368013386
:101EE0001360424B1B68002B66D1404B1C6013688B
:101EF000012B21D13E4F38463E4EB04707F114002A
:101F0000B04707F12800B04707F13C00B04707F1A0
:101F10005000B047DFF818814046B047364F38468A
:101F2000B0473648B0473648B0473648B047364BDA
:101F3000C3F80080354B1F60354A136801331360C6
:101F40002364E06A334A1168012383400B43136022
:101F500000EB80004946264B03EB80002E4B984750
:101F60002E4B98472E4B1B68002B31D01F4B1B6804
:101F7000DB6A9D422ED94FF080522A4B1A60BFF384
:101F80004F8FBFF36F8F012003B0BDE8F08F304655
:101F9000254B98474FF0FF30F6E73B4604F13402FB
:101FA0000937597802F8011F13F8011F00293FF47F
:101FB00070AFBB42F5D16CE7194B1B68002BBBD14E
:101FC0000A4B1B68DB6A9D42B6D3084B1C60B3E723
:101FD0000120D9E70120D7E71D144000694F4000D8
:101FE00075114000C1114000B00D4020400D40204F
:101FF0004C0D402075104000DC0D4020F80D4020B5
:10200000240E4020100E4020440D4020480D40205A
:10201000BC0D4020C40D4020911040000D12400026
:102020000C0E402004ED00E04D1440008B104000E9
:10203000C80D402010B584B0002303930293019390
:102040000093822216491748174CA04701280BD04D
:1020500020BB4FF0800372B683F31188BFF36F8FFC
:10206000BFF34F8F62B6FEE7104B98470128EFD1C0
:102070004FF0800372B683F31188BFF36F8FBFF305
:102080004F8F62B64FF0FF32094B1A600122094BA5
:102090001A600022084B1A60084B984704B010BD24
:1020A00034A54000D9234000011E4000192A4000F9
:1020B000F00D40200C0E4020380E4020F51240005C
:1020C000024A136801331360704700BFB80D402007
:1020D000014B1868704700BF380E40202DE9F047CB
:1020E000424B1B68002B78D1414B1A6801321A60B1
:1020F0001E68D6B93F4B1B681B6853B14FF0800375
:1021000072B683F31188BFF36F8FBFF34F8F62B640
:10211000FEE7384A1168384B186810601960374A72
:10212000136801331360364B9847364B1B689E4249
:1021300018D20024344B1B68DB6A03EB8303334A59
:1021400052F82330022B28BF0124314B1B680BB9F6
:10215000304B9847304B1B68002B0CBF20460120AA
:10216000BDE8F0870024DFF88C90DFF8B8802B4FB3
:102170001FE04FF0FF32234B1A60DBE7214A136068
:10218000D8E705F11800C047E86A3A6801238340A0
:1021900013433B6000EB800051461C4B03EB800077
:1021A0001F4B9847184B1B68EA6ADB6A9A4228BFA4
:1021B0000124D9F800301B68002BDAD0D9F80030A0
:1021C000DB68DD686B689E42D8D305F1040A50468F
:1021D000C047AB6A002BD4D1D6E70D4A1368013350
:1021E00013600C4B98470024B4E700BFB80D4020A3
:1021F000380E4020440D4020480D4020F40D402072
:102200007D1D4000F00D4020400D40204C0D402031
:10221000B40D40202D3340003C0E4020C40D402022
:1022200091104000DD1040002DE9F843384B1B6849
:1022300053B94FF0800372B683F31188BFF36F8FE9
:10224000BFF34F8F62B6FEE7324B9847304B1A68A8
:10225000013A1A601B68002B55D12F4B1B68002BCD
:1022600032D100242D4B98472046BDE8F883FB6807
:10227000DC6804F11800B04704F104084046B04798
:10228000E06A2A680123834013432B6000EB80003F
:10229000414609EB8000224B9847224B1B68E26ABB
:1022A000DB6A9A420CD23B68002BE0D11E4B1B68C4
:1022B000DBB11D4B1B68C3B11C4E1D4D1A4C0EE00B
:1022C00001221B4B1A60EEE71A4F1B4E1B4DDFF825
:1022D0007490E8E72368013B236023682BB1B04783
:1022E0000028F7D001232B60F4E7114B1B68012B6A
:1022F0000BD14FF08052124B1A60BFF34F8FBFF3D8
:102300006F8F0124AEE70024ACE70024AAE700BFEA
:10231000B80D4020C1114000B00D40200D1240000A
:1023200091104000400D4020B40D4020DD204000C1
:102330003C0E4020F80D4020DD104000C40D402030
:1023400004ED00E04C0D402010B5002829D00446D3
:10235000184B1B6853B14FF0800372B683F311889A
:10236000BFF36F8FBFF34F8F62B6FEE7124B9847F4
:10237000124B1B681C44124B18680430114B9847D1
:1023800048B90F4B1A6810490B68D06A0122824085
:1023900023EA02030B6020460C4B98470C4B9847EE
:1023A00038B94FF080520B4B1A60BFF34F8FBFF319
:1023B0006F8F10BDB80D4020C1204000380E402066
:1023C000400D4020DD104000C40D4020A91D4000FC
:1023D0002922400004ED00E080B5DFF88880194E26
:1023E000DFF884902AE0184B1B68012B1ED82B685D
:1023F000002BF8D0C0473468B847002CF7D0134BF7
:102400009847F368DC68201D114B9847114A136800
:10241000013B13602B68013B2B600F4B9847206BEF
:10242000DFF848A0D0472046D047E0E74FF0805380
:10243000C9F80030BFF34F8FBFF36F8F074D084FC0
:10244000D5E700BF240E40204C0D4020C1114000B4
:10245000DD104000B00D40200D124000C00D4020A6
:1024600029224000C120400004ED00E04D1440004E
:102470002D4B1B68002B2CD110B500222B4B1A6062
:102480002B4B1B681B6B1A68B2F1A53F03D15A682E
:10249000B2F1A53F21D0264B186819683431254B7D
:1024A0009847254B1B68B3FA83F3DBB2C3F11F03D4
:1024B00003EB8301214A52F82120BAB94FF080037F
:1024C00072B683F31188BFF36F8FBFF34F8F62B67D
:1024D000FEE70122154B1A6070479A68B2F1A53FDA
:1024E000D9D1DB68B3F1A53FD5D1DAE7134A99001A
:1024F000C81802EB800044686468446019440246CE
:102500000832944209D003EB83030C4A02EB8303A5
:102510005B68DA68064B1A6010BD6068074A02EB18
:1025200081025060EFE700BFB80D40203C0E402014
:10253000400D402015334000C40D40204C0D40207C
:1025400038B5E0B10C46174D29681831164B98473D
:1025500028680430154B984740B92A6814490B681D
:10256000D06A0122824023EA02030B60B4F1FF3FEC
:1025700010D0104B186820440F4B984738BD4FF0CF
:10258000800372B683F31188BFF36F8FBFF34F8F51
:1025900062B6FEE7034B196804310848084B9847B8
:1025A00038BD00BF400D4020A9104000DD104000A4
:1025B000C40D4020380E4020A91D4000100E4020C0
:1025C00091104000E8B170B515460C46164E3168C2
:1025D0001831164B984730680430154B984740B96E
:1025E000326814490B68D06A0122824023EA020350
:1025F0000B60012D10D0104B186820440F4B9847EA
:1026000070BD4FF0800372B683F31188BFF36F8FF4
:10261000BFF34F8F62B6FEE7034B196804310848D9
:10262000024B984770BD00BF400D40209110400004
:10263000DD104000C40D4020380E4020A91D400090
:10264000100E402038B5C368DC6824B304F11805C7
:1026500028461A4B98471A4B1B683BBB251D28463A
:10266000164B9847E06A174A1168012383400B43D1
:10267000136000EB80002946134B03EB8000134BE3
:102680009847134B1B68E26ADB6A9A4213D9012010
:10269000104B186038BD4FF0800372B683F3118879
:1026A000BFF36F8FBFF34F8F62B6FEE729460A482C
:1026B000064B9847E5E7002038BD00BFDD1040001D
:1026C000B80D4020C40D40204C0D4020911040001A
:1026D000400D40203C0E4020F80D402030B1094A0A
:1026E00012680260084A1268426070474FF0800327
:1026F00072B683F31188BFF36F8FBFF34F8F62B64B
:10270000FEE700BFF40D4020380E402038B5C0B1C0
:10271000044609B30D461D4B98471D4B1A682B689C
:10272000B3F1FF3F2ED01B4909682068884202D0D0
:1027300061688A4228D26168501A834217D80124FE
:102740001CE04FF0800372B683F31188BFF36F8FE4
:10275000BFF34F8F62B6FEE74FF0800372B683F38C
:102760001188BFF36F8FBFF34F8F62B6FEE79B1ADE
:102770000B442B602046084B98470024074B984792
:10278000204638BD0024F9E70124F7E7C1114000D5
:10279000380E4020F40D4020DD2640000D12400090
:1027A0000122014B1A6070473C0E4020054B1B680C
:1027B00033B1054B1B68002B0CBF02200020704773
:1027C000012070470C0E4020B80D4020002844D056
:1027D00038B50446C26A21490968C96A8A4214D2D6
:1027E0008169002905DB1D490968C96AC1F1050134
:1027F000816102EB82021A4901EB82026169914216
:1028000004D0164A1268D26AE26238BD251D2846F5
:10281000144B984770B9E36A03EB8301104A52F8EE
:1028200021203AB910480268012101FA03F322EA93
:1028300003030360094B1B68D86AE0620A4A116807
:10284000012383400B43136000EB80002946044BB7
:1028500003EB8000054B984738BD7047400D402082
:102860004C0D4020DD104000C40D40209110400070
:1028700000284DD038B50446274A126890420AD045
:102880004FF0800372B683F31188BFF36F8FBFF3ED
:102890004F8F62B6FEE7C26C52B94FF0800372B63A
:1028A00083F31188BFF36F8FBFF34F8F62B6FEE7DC
:1028B000013AC264C06AA16C88422BD052BB251D6C
:1028C0002846164B984768B9E16A01EB8102144B20
:1028D00053F8223033B91348036801228A4023EAAF
:1028E00002030360A06CE062C0F10503A3610D4A1E
:1028F0001168012404FA00F30B43136000EB80001D
:102900002946074B03EB8000074B9847204638BD0C
:1029100000207047002038BD400D4020DD104000F1
:102920004C0D4020C40D402091104000054B1B6809
:1029300023B1044B1A68D36C0133D364014B18687C
:10294000704700BF400D402008B5416000619142D2
:102950000CD8D21A83699A4201D3012008BD011D07
:10296000094B1868094B9847002008BD9A4203D2CA
:10297000994201D3012008BD011D054B1868034B86
:102980009847002008BD00BF440E4020A910400019
:10299000400E402070B5154B9847154B1B6813B17E
:1029A000144B984770BD144D2846144EB047144C34
:1029B0002046B047134B1D60134B1C6000221021B2
:1029C0000520124B98470A4B186018B11049114B5B
:1029D0009847E5E74FF0800372B683F31188BFF3A1
:1029E0006F8FBFF34F8F62B6FEE700BFC11140008B
:1029F000740E40200D124000480E4020751040001B
:102A00005C0E4020400E4020440E4020E116400065
:102A10003CA54000F11C400010B584B00F4B984716
:102A20000F4B1B6873B1002303930293019304229D
:102A300000924FF482720B490B480C4CA04708B12E
:102A400004B010BD4FF0800372B683F31188BFF35A
:102A50006F8FBFF34F8F62B6FEE700BF952940002E
:102A6000740E402044A54000992B4000011E4000F8
:102A7000D8B130B585B015460446154A106820B364
:102A80001A46009101950294052919DC114B9847CB
:102A900002284FF000030CBF089A1A4669460C48FA
:102AA00000680D4CA04705B030BD4FF0800372B6F2
:102AB00083F31188BFF36F8FBFF34F8F62B6FEE7CA
:102AC00000236946054CA047EDE70020EBE700BF77
:102AD000740E4020AD2740005D17400041194000B2
:102AE0002DE9F04782B08046244B98470746244B97
:102AF0001B6898421BD30023C8F80030204B1F608E
:102B0000384602B0BDE8F087002100910B465246DE
:102B100020461C4CA04760B94FF0800372B683F387
:102B20001188BFF36F8FBFF34F8F62B6FEE7164D6C
:102B3000164E2B681A68C2B1DB68D3F800A0DC68B7
:102B400004F104094846B047636A20469847E369A0
:102B5000012BEED1A36953449A45D5D26360246119
:102B6000494628680A4B9847E3E70A4A106806492D
:102B7000086013600123C8F80030BFE7D12040008F
:102B8000700E4020712A4000400E4020DD104000B1
:102B9000A9104000440E40202DE9F04788B0754E42
:102BA000754FDFF8FC91DFF8FC8133681A68002A62
:102BB00000F0CE80DB681C68B84704A86F4B9847CC
:102BC0000546049B002B44D1A04212D20022611B77
:102BD0006B4B18686B4B98476B4B984700283AD162
:102BE0004FF08053C9F80030BFF34F8FBFF36F8FA2
:102BF00031E0654B98473368DB68D3F80CA00AF1E5
:102C00000400C047DAF81C30012B04D0DAF8243075
:102C1000504698471FE0DAF8181023462A46214408
:102C200050465A4DA8470128F0D1002100910B468B
:102C300022465046564CA0470028E7D14FF080036B
:102C400072B683F31188BFF36F8FBFF34F8F62B6F5
:102C5000FEE74D4B98474A4D4E4C06E007990698C3
:102C6000059B9847049B002B09DA00231A4604A908
:102C70002868A047002898D0049B002BEEDBDDF8E5
:102C800018A0DAF8143013B10AF10400C04703A801
:102C90003A4B9847049B092BE7D801A252F823F03E
:102CA000C92C4000C92C4000C92C40006B2C4000AE
:102CB0001D2D4000492D4000C92C4000C92C40006A
:102CC0006B2C40001D2D4000059CDAF8181023469F
:102CD0000246214450462D4CA0470128BCD1DAF8C9
:102CE000243050469847DAF81C30012BB4D1DAF87A
:102CF0001820002100910B46059802445046244CB0
:102D0000A0470028A8D14FF0800372B683F3118842
:102D1000BFF36F8FBFF34F8F62B6FEE70599CAF816
:102D2000181031B10346024601445046174CA047E3
:102D300092E74FF0800372B683F31188BFF36F8F71
:102D4000BFF34F8F62B6FEE75046134B984783E7B9
:102D5000B84704A8094B98470546049B002B7FF40D
:102D600078AF0E4B1B681A68B2FA82F2520900243F
:102D70002DE700BF400E4020C1204000E12A400066
:102D8000740E4020251D40002922400049294000A2
:102D9000712A4000211B40004D144000440E402089
:102DA00004ED00E0DD10400008B50C4BDA684FF090
:102DB000205118680A4B984728B14FF080410948C4
:102DC000094B984708BD0021044B5869074B9847A9
:102DD0004FF080410348064B984708BD140040203F
:102DE0001308400000140E400F084000411A400034
:102DF0000B08400008B50C4BDA684FF020511868FA
:102E00000A4B984728B14FF400210948094B9847CD
:102E100008BD0021044B5869074B98474FF4002127
:102E20000348064B984708BD840040201308400023
:102E300000120E400F084000411A40000B084000ED
:102E400008B50C4BDA684FF0205118680A4B9847C8
:102E500028B14FF400610948094B984708BD00218B
:102E6000044B5869074B98474FF400610348064BE1
:102E7000984708BDA00040201308400000140E40F1
:102E80000F084000411A40000B08400008B50C4BE9
:102E9000DA684FF0205118680A4B984728B14FF470
:102EA00000510948094B984708BD0021044B586957
:102EB000074B98474FF400510348064B984708BD0D
:102EC000BC0040201308400000120E400F084000D4
:102ED000411A40000B08400008B50C4BDA684FF06F
:102EE000205118680A4B984728B14FF08061094873
:102EF000094B984708BD0021044B5869074B984778
:102F00004FF080610348064B984708BDD800402029
:102F10001308400000140E400F084000411A400002
:102F20000B08400008B50C4BDA684FF020511868C8
:102F30000A4B984728B14FF400110948094B9847AC
:102F400008BD0021044B5869074B98474FF4001106
:102F50000348064B984708BDF40040201308400082
:102F6000000E0E400F084000411A40000B084000C0
:102F700008B50B4BDA684FF020511868094B984799
:102F800020B140210848094B984708BD0021044B57
:102F90005869074B984740210348064B984708BD9E
:102FA0001001402013084000000E0E400F084000A2
:102FB000411A40000B08400008B50C4BDA684FF08E
:102FC000205118680A4B984728B14FF08071094882
:102FD000094B984708BD0021044B5869074B984797
:102FE0004FF080710348064B984708BD2C014020E4
:102FF00013084000000E0E400F084000411A400028
:103000000B08400008B50B4BDA684FF020511868E8
:10301000094B984720B110210848094B984708BD33
:103020000021044B5869074B984710210348064B71
:10303000984708BD480140201308400000100E408A
:103040000F084000411A40000B08400008B50C4B27
:10305000DA684FF0205118680A4B984728B14FF0B2
:1030600080610948094B984708BD0021044B586905
:10307000074B98474FF080610348064B984708BDBF
:103080003000402013084000000E0E400F084000A2
:10309000411A40000B08400008B50B4BDA684FF0AE
:1030A00020511868094B984720B104210848094B62
:1030B000984708BD0021044B5869074B98470421E5
:1030C0000348064B984708BD4C00402013084000B9
:1030D000000E0E400F084000411A40000B0840004F
:1030E00008B50C4BDA684FF0205118680A4B984726
:1030F00028B14FF000610948094B984708BD0021ED
:10310000044B5869074B98474FF000610348064B42
:10311000984708BD680040201308400000140E4086
:103120000F084000411A40000B08400070B50C46E3
:103130002A4B984213D02A4B984219D0294B9842D7
:103140001FD0294B984225D0284B98422BD0284B92
:10315000984231D0274B984237D0002070BD1E4690
:10316000254D21463046A8470028FAD1012070BDE0
:103170001E46214D21463046A8470028FAD101209D
:1031800070BD1E461C4D21463046A8470028FAD186
:10319000012070BD1E46184D21463046A847002824
:1031A000FAD1012070BD1E46144D21463046A84775
:1031B0000028FAD1012070BD1E46104D2146304630
:1031C000A8470028FAD1012070BD1E460B4D2146AC
:1031D0003046A8470028FAD1012070BD00080E40F3
:1031E000000A0E40001A0E40001C0E400040024033
:1031F0000080024000C00240850C4000950D400058
:1032000010B5084B08225A669B6E07490B600122D5
:10321000064B1A7000231A4605480068054CA04763
:1032200010BD00BF00C003409C0F4020780E40201E
:103230008C0F402041194000F0B583B005460C4684
:10324000002301932A4B984213D02A4B984218D05E
:10325000294B98421DD0294B9D4222D0284B9D429C
:1032600027D0284B9D422ED0274B9D4235D003B00E
:10327000F0BD1F46254E21463846B0470028FAD1FA
:10328000E9E71F46214E21463846B0470028FAD1CB
:10329000E4E71F461D4E21463846B0470028FAD1C4
:1032A000DFE71F46194E21463846B0470028FAD1BD
:1032B000DAE71E46164D01A93046A8470028FAD184
:1032C000019B2370D3E71E46114D01A93046A84744
:1032D0000028FAD1019B2370C9E71E460C4D01A9B5
:1032E0003046A8470028FAD1019B2370BFE700BFF2
:1032F00000080E40000A0E40001A0E40001C0E404E
:10330000004002400080024000C00240970C400094
:10331000AB0D400008B50A4601460248024B9847EB
:10332000FEE700BF00A640008D48400070474FF008
:10333000800372B683F31188BFF36F8FBFF34F8F93
:1033400062B6FEE738B505460C460846034B98477B
:10335000024621462846024B984738BD415240005C
:103360001D0240002DE9F04782B08946C3B1804676
:103370001D46561E1CD000240E4FDFF83CA005E071
:10338000013D0120D04765B1B4420AD201A94046AF
:10339000B8470028F4D1019B09F804300134F2E762
:1033A0000024002309F80430204602B0BDE8F0876D
:1033B0003446F6E7AB0D40004923400070B50446A3
:1033C0000D4616461946044B9847049B324629463B
:1033D0002046024CA04770BD453340006533400095
:1033E00070B50E4678230B7148710B4D0B4C284677
:1033F000A0470028FBD0062231460748084B9847D3
:10340000054D064C2846A0470028FBD0582102480D
:10341000044B984770BD00BF004002408D0D400036
:103420001D024000950D40002DE9F04F8BB00022A9
:1034300004210A20804B9847804B1860804C20461E
:10344000804B984704A8804B984704A920467F4B9F
:103450009847636823F08F03636005237C4A082143
:1034600020467C4DA84703A87B4B984700258DF844
:103470000D5003AA08212046784B9847082363661D
:103480004FF40077E7664FF4807666610C20DFF832
:103490002C82C0472B463A464FF040517048714F3E
:1034A000B8471020C0472B464FF480324FF04051B0
:1034B0006D48B8476661022323606C4C5F4FDFF8AC
:1034C000A891DFF89C8175E0642306226849694869
:1034D000694DA847B8B90023012221463868B04792
:1034E0000028F1D06548664B98470222544B1A6079
:1034F0002268644D64492846644B984729466E20EB
:10350000634B9847E0E75A48624B9847624B9847AD
:1035100047A3D3E90023614DA84782468B46CDE9F6
:1035200000AB20685E4B984702460B465046594612
:103530005C4DA84700283FD12068594B9847024668
:103540000B4650465946584DA847002832D02268AD
:1035500040F6FD739A422DD8DFF8E4B04FF0020A2E
:10356000CBF800A04FF480314846504DA8474FF4A7
:10357000007140464E4B98474CF28E504D4EB0472E
:103580004FF480314846A8474FF400714046A847A1
:1035900043F64430B0472068414B984702460B46FB
:1035A000DDE90001404DA84720B1226840F6FD73D7
:1035B0009A42D5D9404E8EE72068394B984702464B
:1035C0000B46DDE90001374DA8470028F2D02368FB
:1035D0001E2BEFD9DFF868B04FF0020ACBF800A03D
:1035E0004FF480314846324B98474FF400714046C3
:1035F0002E4DA8474CF28E502E4EB0474FF48031DE
:103600004846A8474FF400714046A84743F6443067
:10361000B0472068224B984702460B46DDE900017F
:10362000204DA8470028C5D023681E2BD6D8C1E757
:103630009A99999999794440E11640008C0F40205D
:1036400000C003408D074000D10540000D0640003A
:10365000013240000D07400001064000A105400076
:1036600000120E401D09400000140E409C0F402027
:10367000840F40200040024065334000E4A5400034
:103680008D484000900F4020F8A54000E1514000D7
:10369000E1334000354840003542400001434000DE
:1036A00015424000E5474000214840000F08400017
:1036B0000B08400001004020211B4000310C40005D
:1036C00080B5032200210120754CA047754B58613D
:1036D000032200210120A047734B586103220021DF
:1036E0000120A047714B5861032200210120A0470F
:1036F0006F4B5861032200210120A0476D4B586198
:10370000032200210120A0476B4B586103220021B6
:103710000120A047694B5861032200210120A047E6
:10372000674B5861032200210120A047654B586177
:10373000032200210120A047634B5861032200218E
:103740000120A047614B5861032200210120A047BE
:103750005F4B58615F4EDFF84C91DFF880815E4F20
:103760009A469AE0414699F81800B8473CE041462D
:103770004D4B187EB8473FE041464C4B187EB8474A
:1037800042E041464A4B187EB84745E04146494B26
:10379000187EB84748E04146474B187EB8474BE093
:1037A0004146464B187EB8474EE04146444B187E92
:1037B000B84751E04146434B187EB84754E0414674
:1037C000414B187EB84757E02B4622462946DAF887
:1037D0001400B04701285CD02B4622462946D9F870
:1037E0001400B0470128BDD02B46224629462E485A
:1037F0004069B0470128BAD02B46224629462B48BB
:103800004069B0470128B7D02B46224629462848B0
:103810004069B0470128B4D02B46224629462548A6
:103820004069B0470128B1D02B462246294622489C
:103830004069B0470128AED02B46224629461F4892
:103840004069B0470128ABD02B46224629461C4888
:103850004069B0470128A8D02B462246294619487E
:103860004069B0470128A5D02B4622462946164874
:103870004069B0470128A2D02B462246294613486A
:103880004069B04701289FD14146104B187EB84788
:103890009AE741469AF81800B847002501249BE7AB
:1038A000E11640001400402084004020A000402089
:1038B000BC004020D8004020F400402010014020EF
:1038C0002C01402048014020300040204C00402086
:1038D00068004020211B4000E1334000900F402051
:1038E000F0B587B00D20174CA0474FF41653009346
:1038F000C02301934FF400630293002503950495C0
:103900000D20A047104C114A69462046104B98479D
:103910002046104FB84720460F4EB0472046B847C4
:103920002046B0470D4E2B4601224FF0C051304685
:103930000B4CA0472B4602224FF0C0513046A04707
:1039400007B0F0BD310C40000040024080D1F008CB
:103950002D0D4000810D4000870D400000100E40ED
:103960001D094000F0B5A3B0154F164D6426009612
:103970003B464FF47A7202A92846134CA0471348DD
:10398000134B984700963B464FF47A7202A928469B
:10399000A04700960F4B4FF47A7202A92846A04721
:1039A00000963B464FF47A7202A92846A04700963B
:1039B000094B4FF47A7202A92846A04723B0F0BD04
:1039C0004CA5400000400240BD33400050A54000DF
:1039D0008D48400054A5400060A5400084B0F0B57B
:1039E00083B008AC84E80F0006460B9D09232A46E5
:1039F0004FF02051194CA0473C2229463046184B25
:103A00009847099C0F9B009340232A462146304645
:103A1000144FB84729463046134B984763B25B09A9
:103A200004F01F04012202FA04F4104A42F8234071
:103A3000099B5AB2002A09DB0C4B1344802283F8FD
:103A4000002303B0BDE8F04004B0704703F00F035B
:103A5000074A1A4480231376F3E700BF1D0940008C
:103A6000F10740003D0A4000DF09400000E100E0AE
:103A7000FCEC00E02DE9F047DFF840814FF0804199
:103A80004046484EB047484D2846484CA047DFF8CE
:103A900030914FF400214846B0472846A0474FF4E4
:103AA00000614046B0472846A0474FF400514846C1
:103AB000B0472846A0474FF080614046B0472846AF
:103AC000A0473B4F4FF400113846B0472846A04767
:103AD00040213846B0472846A0474FF0807138460D
:103AE000B0472846A047DFF8DCA010215046B04779
:103AF0002846A0474FF080613846B0472846A04787
:103B000004213846B0472846A0474FF000614046A0
:103B1000B0472846A0474FF000614046254DA847D2
:103B2000254E3046A04704213846A8473046A047D6
:103B30004FF080613846A8473046A04710215046D4
:103B4000A8473046A0474FF080713846A847304616
:103B5000A04740213846A8473046A0474FF40011FF
:103B60003846A8473046A0474FF080614046A847F6
:103B70003046A0474FF400514846A8473046A0477A
:103B80004FF400614046A8473046A0474FF400215B
:103B90004846A8473046A0474FF080414046A847D6
:103BA000BDE8F0870B0840001EBC3D00010040202E
:103BB000000E0E400F0840008B26170000140E4028
:103BC00000120E4000100E40F0B585B00C20784D6C
:103BD000A847784F00234FF480724FF04051384689
:103BE000754CA0471020A8470C20A8471020A847D4
:103BF0000C20A8471020A8470A20A8470A20A84759
:103C00000A20A8470B20A8470A20A8470A20A8474F
:103C10001020A847694E00234FF080424FF04051DA
:103C20003046A04700234FF400224FF04051384661
:103C3000A04700234FF400624FF040513046A047A8
:103C400000234FF400524FF040513846A047002364
:103C50004FF080624FF040513046A047584D00234E
:103C60004FF400124FF040512846A0470023402255
:103C70004FF040512846A04700234FF080724FF08C
:103C800040512846A047002310224FF040514D4894
:103C9000A04700234FF080624FF040512846A047D4
:103CA000002304224FF040512846A04700234FF044
:103CB00000624FF040513046A047434B434A0392C5
:103CC00003F1100207CA8DE807000FCB404CA04754
:103CD000404B414A039203F1100207CA8DE80700E6
:103CE0000FCBA0473D4B3E4A039203F1100207CA97
:103CF0008DE807000FCBA0473A4B3B4A039203F1F4
:103D0000100207CA8DE807000FCBA047374B384A8F
:103D1000039203F1100207CA8DE807000FCBA047FA
:103D2000344B354A039203F1100207CA8DE80700AD
:103D30000FCBA047314B324A039203F1100207CA5E
:103D40008DE807000FCBA0472E4B2F4A039203F1BB
:103D5000100207CA8DE807000FCBA0472B4B2C4A57
:103D6000039203F1100207CA8DE807000FCBA047AA
:103D7000284B294A039203F1100207CA8DE8070075
:103D80000FCBA047254B264A039203F1100207CA26
:103D90008DE807000FCBA047224B234A039203F183
:103DA000100207CA8DE807000FCBA04705B0F0BD91
:103DB000310C400000120E401D09400000140E405E
:103DC000000E0E4000100E4014004020A92D4000AF
:103DD000DD39400084004020F52D4000A000402047
:103DE000412E4000BC0040208D2E4000D8004020D5
:103DF000D92E4000F4004020252F40001001402023
:103E0000712F40002C014020B92F40004801402074
:103E100005304000300040204D3040004C00402034
:103E20009930400068004020E130400008B5064865
:103E3000064B9847064B9847064B9847064B9847C2
:103E4000064B9847FEE700BFC8A540008D484000DC
:103E5000E138400065394000C93B4000753A4000F8
:103E600000B58BB0304B9847304B9847304D314BB5
:103E70001D60314A314B1A60314A324B1A604FF49F
:103E8000E1330493C02305934FF4006306930024A9
:103E9000079408940E202C4B98472C4A04A92846D6
:103EA0002B4B984728462B4B984728462A4B984738
:103EB0002A4E336821469868294DA8473368214621
:103EC0005868A847336821469868A8470394029425
:103ED0000194009423464FF4806222492248234DE6
:103EE000A847039402940194009423464FF400726F
:103EF0001F492048A847012802D01F481F4B984758
:103F0000002303930293019300934FF400721C4922
:103F10001C48164CA047012802D01B48174B984755
:103F20001A4B9847FEE700BFAD01400081034000F7
:103F300000800240C00E40202D314000BC0E4020C9
:103F400039324000B80E4020310C400080D1F008DA
:103F50002D0D4000810D4000870D40006401402080
:103F6000415040006CA540002D3E4000011E400025
:103F700070A540002934400078A540008D484000DD
:103F80009CA54000C1364000A4A54000352040005B
:103F900081F0004102E000BF83F0004330B54FEAFA
:103FA00041044FEA430594EA050F08BF90EA020F67
:103FB0001FBF54EA000C55EA020C7FEA645C7FEAFA
:103FC000655C00F0E2804FEA5454D4EB5555B8BF1D
:103FD0006D420CDD2C4480EA020281EA030382EA8E
:103FE000000083EA010180EA020281EA0303362D20
:103FF00088BF30BD11F0004F4FEA01314FF4801CF3
:104000004CEA113102D0404261EB410113F0004F04
:104010004FEA03334CEA133302D0524263EB4303BB
:1040200094EA050F00F0A780A4F10104D5F1200E59
:104030000DDB02FA0EFC22FA05F2801841F10001B4
:1040400003FA0EF2801843FA05F359410EE0A5F188
:1040500020050EF1200E012A03FA0EFC28BF4CF0B9
:10406000020C43FA05F3C01851EBE37101F000456F
:1040700007D54FF0000EDCF1000C7EEB00006EEB7C
:104080000101B1F5801F1BD3B1F5001F0CD3490806
:104090005FEA30004FEA3C0C04F101044FEA44525D
:1040A00012F5800F80F09A80BCF1004F08BF5FEAE4
:1040B000500C50F1000041EB045141EA050130BDC4
:1040C0005FEA4C0C404141EB010111F4801FA4F167
:1040D0000104E9D191F0000F04BF01460020B1FABC
:1040E00081F308BF2033A3F10B03B3F120020CDAF4
:1040F0000C3208DD02F1140CC2F10C0201FA0CF0D2
:1041000021FA02F10CE002F11402D8BFC2F1200C36
:1041100001FA02F120FA0CFCDCBF41EA0C019040EC
:10412000E41AA2BF01EB0451294330BD6FEA040435
:104130001F3C1CDA0C340EDC04F11404C4F1200220
:1041400020FA04F001FA02F340EA030021FA04F332
:1041500045EA030130BDC4F10C04C4F1200220FA89
:1041600002F001FA04F340EA0300294630BD21FAC7
:1041700004F0294630BD94F0000F83F4801306BF8D
:1041800081F480110134013D4EE77FEA645C18BF81
:104190007FEA655C29D094EA050F08BF90EA020F18
:1041A00005D054EA000C04BF1946104630BD91EA10
:1041B000030F1EBF0021002030BD5FEA545C05D113
:1041C0004000494128BF41F0004130BD14F5800452
:1041D0003CBF01F5801130BD01F0004545F0FE41C6
:1041E00041F470014FF0000030BD7FEA645C1ABFFB
:1041F000194610467FEA655C1CBF0B46024650EA32
:10420000013406BF52EA033591EA030F41F400215D
:1042100030BD00BF90F0000F04BF0021704730B5E3
:104220004FF4806404F132044FF000054FF00001B8
:1042300050E700BF90F0000F04BF0021704730B579
:104240004FF4806404F1320410F0004548BF40424E
:104250004FF000013EE700BF42004FEAE2014FEAA3
:1042600031014FEA02701FBF12F07F4393F07F4F7E
:1042700081F06051704792F0000F14BF93F07F4FB0
:10428000704730B54FF4607401F0004521F00041F3
:1042900020E700BF50EA010208BF704730B54FF079
:1042A00000050AE050EA010208BF704730B511F07E
:1042B000004502D5404261EB41014FF4806404F1B6
:1042C00032045FEA915C3FF4DCAE4FF003025FEA38
:1042D000DC0C18BF03325FEADC0C18BF033202EBC0
:1042E000DC02C2F1200300FA03FC20FA02F001FA1A
:1042F00003FE40EA0E0021FA02F11444C1E600BFB9
:1043000070B54FF0FF0C4CF4E06C1CEA11541DBF6B
:104310001CEA135594EA0C0F95EA0C0F00F0DEF836
:104320002C4481EA030621EA4C5123EA4C5350EA1B
:10433000013518BF52EA033541F4801143F480136C
:1043400038D0A0FB02CE4FF00005E1FB02E506F0FD
:104350000042E0FB03E54FF00006E1FB03569CF052
:10436000000F18BF4EF0010EA4F1FF04B6F5007F58
:1043700064F5407404D25FEA4E0E6D4146EB0606CA
:1043800042EAC62141EA55514FEAC52040EA5E5053
:104390004FEACE2EB4F1FD0C88BFBCF5E06F1ED8FD
:1043A000BEF1004F08BF5FEA500E50F1000041EB34
:1043B000045170BD06F0004646EA010140EA0200E1
:1043C00081EA0301B4EB5C04C2BFD4EB0C0541EA03
:1043D000045170BD41F480114FF0000E013C00F318
:1043E000AB8014F1360FDEBF002001F0004170BD3C
:1043F000C4F10004203C35DA0C341BDC04F1140455
:10440000C4F1200500FA05F320FA04F001FA05F2E0
:1044100040EA020001F0004221F0004110EBD370AD
:1044200021FA04F642EB06015EEA430E08BF20EAD9
:10443000D37070BDC4F10C04C4F1200500FA04F37C
:1044400020FA05F001FA04F240EA020001F000410E
:1044500010EBD37041F100015EEA430E08BF20EA81
:10446000D37070BDC4F1200500FA05F24EEA020EC9
:1044700020FA04F301FA05F243EA020321FA04F0F8
:1044800001F0004121FA04F220EA020000EBD370AF
:104490005EEA430E08BF20EAD37070BD94F0000FAF
:1044A0000FD101F00046400041EB010111F4801FE3
:1044B00008BF013CF7D041EA060195F0000F18BF94
:1044C000704703F00046520043EB030313F4801FD0
:1044D00008BF013DF7D043EA0603704794EA0C0F8A
:1044E0000CEA135518BF95EA0C0F0CD050EA4106A0
:1044F00018BF52EA4306D1D181EA030101F000411D
:104500004FF0000070BD50EA410606BF1046194644
:1045100052EA430619D094EA0C0F02D150EA013650
:1045200013D195EA0C0F05D152EA03361CBF104691
:1045300019460AD181EA030101F0004141F0FE4130
:1045400041F470014FF0000070BD41F0FE4141F4B4
:10455000780170BD70B54FF0FF0C4CF4E06C1CEAB4
:1045600011541DBF1CEA135594EA0C0F95EA0C0F69
:1045700000F0A7F8A4EB050481EA030E52EA033524
:104580004FEA013100F088804FEA03334FF0805545
:1045900045EA131343EA12634FEA022245EA111572
:1045A00045EA10654FEA00260EF000419D4208BF23
:1045B000964244F1FD0404F5407402D25B084FEAD0
:1045C0003202B61A65EB03055B084FEA32024FF47C
:1045D00080104FF4002CB6EB020E75EB030E22BFD9
:1045E000B61A754640EA0C005B084FEA3202B6EB99
:1045F000020E75EB030E22BFB61A754640EA5C0048
:104600005B084FEA3202B6EB020E75EB030E22BFD7
:10461000B61A754640EA9C005B084FEA3202B6EBD8
:10462000020E75EB030E22BFB61A754640EADC0097
:1046300055EA060E18D04FEA051545EA16754FEAF9
:1046400006164FEAC30343EA52734FEAC2025FEA17
:104650001C1CC0D111F4801F0BD141EA00014FF0A6
:1046600000004FF0004CB6E711F4801F04BF014377
:104670000020B4F1FD0C88BFBCF5E06F3FF6AFAE93
:10468000B5EB030C04BFB6EB020C5FEA500C50F123
:10469000000041EB045170BD0EF0004E4EEA1131A6
:1046A00014EB5C04C2BFD4EB0C0541EA045170BDAD
:1046B00041F480114FF0000E013C90E645EA060EF1
:1046C0008DE60CEA135594EA0C0F08BF95EA0C0F1F
:1046D0003FF43BAF94EA0C0F0AD150EA01347FF467
:1046E00034AF95EA0C0F7FF425AF104619462CE73E
:1046F00095EA0C0F06D152EA03353FF4FDAE1046A1
:10470000194622E750EA410618BF52EA43067FF4F1
:10471000C5AE50EA41047FF40DAF52EA43057FF481
:10472000EBAE12E74FF0FF3C06E000BF4FF0010C8C
:1047300002E000BF4FF0010C4DF804CD4FEA410CF0
:104740007FEA6C5C4FEA430C18BF7FEA6C5C1BD0BD
:1047500001B050EA410C0CBF52EA430C91EA030F3E
:1047600002BF90EA020F0020704710F1000F91EA9B
:10477000030F58BF994208BF90422CBFD8176FEA69
:10478000E37040F0010070474FEA410C7FEA6C5C37
:1047900002D150EA013C07D14FEA430C7FEA6C5C3E
:1047A000D6D152EA033CD3D05DF8040B704700BF6A
:1047B0008446104662468C461946634600E000BFB8
:1047C00001B5FFF7B7FF002848BF10F1000F01BD8A
:1047D0004DF808EDFFF7F4FF0CBF012000205DF855
:1047E00008FB00BF4DF808EDFFF7EAFF34BF0120DA
:1047F00000205DF808FB00BF4DF808EDFFF7E0FF73
:1048000094BF012000205DF808FB00BF4DF808EDC3
:10481000FFF7CEFF94BF012000205DF808FB00BF2A
:104820004DF808EDFFF7C4FF34BF012000205DF80C
:1048300008FB00BF0A22002100F004BE70B50F4E35
:104840000F4D761BB61018BF002405D0013455F863
:10485000043B9847A642F9D10A4E0B4D761B06F051
:104860002FF8B61018BF002406D0013455F8043BC9
:104870009847A642F9D170BD70BD00BFCCA84000DA
:10488000CCA84000D4A84000CCA840000FB400B58C
:10489000074983B004AB086853F8042B816801937F
:1048A00002F054F803B05DF804EB04B0704700BFA9
:1048B00064014020024B0146186800F00BB800BFAD
:1048C00064014020024B0146186804F019B900BF8A
:1048D000640140202DE9F04F01F10B06162E83B044
:1048E000054640F29E8036F0070600F1BD80B142D9
:1048F00000F2BA8000F086FBB6F5FC7FC0F0938230
:10490000730A00F0B880042B00F27981B30903F137
:10491000390003F1380EC300BF4F3B44A3F1080137
:104920005C68A14206D10CE0002A80F2AA80E4680B
:10493000A14206D0636823F003039A1B0F2AF3DD1C
:1049400070463C69DFF8E4E2744500F0AB816368CF
:1049500023F003039A1B0F2A00F39081002AC7F863
:1049600014E0C7F810E080F29D80B3F5007F80F07E
:104970006181DB0803F1010C99107A6857F83C80DB
:10498000C4F8088001238B4007EBCC01134308399E
:10499000E1607B6047F83C40C8F80C40821001247D
:1049A00094409C4200F28B801C4206D120F0030010
:1049B00064001C4200F10400FAD007EBC009CC46A9
:1049C0008046DCF80C309C4507D16DE1002A80F26E
:1049D0007B81DB689C4500F06781596821F0030109
:1049E0008A1B0F2AF2DDD3F80CC0D3F8088000939D
:1049F0009C19284646F0010642F001055E60C8F8A1
:104A00000CC0CCF808807C613C61C4F80CE0C4F8B0
:104A100008E065605A5000F0FBFA009B03F10804BF
:104A20001EE0102920D800F0EDFA102618230220ED
:104A3000794F3B44A3F108025C68944200F03D8149
:104A40006368E168A66823F00303234428465A6894
:104A5000F16042F001028E605A6000F0D9FA083429
:104A6000204603B0BDE8F08F00240C2320462B60C5
:104A700003B0BDE8F08F40204FF400734FF03F0EBD
:104A80004AE72344E1685A68A66842F00102F160EF
:104A900028468E605A6000F0BBFA0834204603B006
:104AA000BDE8F08F234428465A6842F001025A605C
:104AB00000F0AEFA0834204603B0BDE8F08FBC68C1
:104AC000636823F00308B04504D3A8EB06030F2B5B
:104AD00000F38580DFF85891504BD9F800201B680F
:104AE0000132334404EB080A00F0558103F580538A
:104AF0000F3323F47F6B2BF00F0B5946284600F041
:104B00008DFA411C024600F0FC80824500F2F780DD
:104B1000434B19685944196000F04D81D9F80000E1
:104B200001301BBFA2EB0A0A5144C9F800201960EA
:104B300012F0070100F01581C1F10800C1F58051A4
:104B40000244083102EB0B09C9F30B09A1EB090977
:104B5000494628460193009200F060FA431C9DE804
:104B60000C0000F04381801A484440F001001968AD
:104B7000BA604944BC425060196017D0B8F10F0FB9
:104B800040F2FB806068A8F10C0222F0070204EBFF
:104B9000020E00F001004FF0050C10430F2A606078
:104BA000CEF804C0CEF808C000F217811D4BBC68D7
:104BB0001A68914288BF19601B4B1A68914262685B
:104BC00088BF196022F003029642A2EB060301D8C7
:104BD0000F2B04DC284600F01BFA002440E7A21942
:104BE00043F0010346F0010666602846BA60536050
:104BF00000F00EFA0834204603B0BDE8F08F142B05
:104C000071D9542B00F2A380330B03F16F0003F131
:104C10006E0EC30080E600BF90054020AC0E402021
:104C20007C0E4020A40E4020A80E40209805402075
:104C3000980940205A0A042A5BD9142A00F2AE804F
:104C400002F15C01C9005B3207EB010C7958ACF151
:104C5000080C8C4500F088804A6822F003029342D9
:104C600073D289688C45F7D1DCF80C207B68E26050
:104C7000C4F808C09460CCF80C408FE6A11946F047
:104C8000010C42F00106C4F804C02846796139617C
:104C9000C1F80CE0C1F808E04E60E25000F0B8F94D
:104CA0000834DDE67B6879E608F1010818F0030FA7
:104CB0000CF1080C7FF485AE2DE0DC68A34208BF40
:104CC00002303FF43EAEBBE619441C464A68DB683E
:104CD00054F8086F42F001024A602846F3609E6073
:104CE00000F096F9BCE603F15C0003F15B0EC30033
:104CF00012E69A0902F13901C9003832A4E7BC4230
:104D000054D0BC68626822F003025DE759F80839A4
:104D1000994540F0868010F0030F00F1FF30F5D187
:104D20007B6823EA04037B6064009C423FF6C7AEC5
:104D3000002C3FF4C4AE1C4240467FF43EAE6400FB
:104D40001C4200F10400FAD037E68C468CE7B3F53C
:104D5000AA7F15D8F30B03F1780003F1770EC30097
:104D6000DAE54FF48051EDE67B689210012101FAFB
:104D700002F213437B60624679E70123536029E71F
:104D800040F25452934222D8B30C03F17D0003F158
:104D90007C0EC300C0E503F1100BAEE6542A29D8FF
:104DA0001A0B02F16F01C9006E324DE7204B1968F2
:104DB00059441960B2E6CAF30B0000287FF4AEAE86
:104DC00008EB0B03BA6843F001035360EEE67F2063
:104DD0004FF47E734FF07E0E9EE504F108012846E5
:104DE000009303F08DFE009B1968DFE601204FF071
:104DF0000009BCE6B2F5AA7F05D8DA0B02F178010A
:104E0000C900773220E740F254518A4205D89A0C03
:104E100002F17D01C9007C3216E74FF47E717E22DB
:104E200012E77B6880E7F00806F1080300E600BFA0
:104E30007C0E4020844641EA000313F003036DD149
:104E4000403A41D351F8043B40F8043B51F8043B4D
:104E500040F8043B51F8043B40F8043B51F8043B54
:104E600040F8043B51F8043B40F8043B51F8043B44
:104E700040F8043B51F8043B40F8043B51F8043B34
:104E800040F8043B51F8043B40F8043B51F8043B24
:104E900040F8043B51F8043B40F8043B51F8043B14
:104EA00040F8043B51F8043B40F8043B51F8043B04
:104EB00040F8043B51F8043B40F8043B51F8043BF4
:104EC00040F8043B403ABDD2303211D351F8043B94
:104ED00040F8043B51F8043B40F8043B51F8043BD4
:104EE00040F8043B51F8043B40F8043B103AEDD243
:104EF0000C3205D351F8043B40F8043B043AF9D294
:104F0000043208D0D2071CBF11F8013B00F8013B66
:104F100001D30B8803806046704700BF082A13D373
:104F20008B078DD010F003038AD0C3F10403D21A8B
:104F3000DB071CBF11F8013B00F8013B80D331F8BF
:104F4000023B20F8023B7BE7043AD9D3013A11F83F
:104F5000013B00F8013BF9D20B7803704B784370AA
:104F60008B7883706046704770B4860746D0541EB5
:104F7000002A41D0CAB2034602E014F1FF343BD309
:104F800003F8012B9D07F8D1032C2ED9CDB245EAA9
:104F900005250F2C45EA054519D903F110022646CF
:104FA000103E0F2E42F8105C42F80C5C42F8085C90
:104FB00042F8045C02F11002F2D8A4F1100222F0CF
:104FC0000F0204F00F041032032C13440DD91E46B7
:104FD0002246043A032A46F8045BFAD8221F22F03C
:104FE00003020432134404F003042CB1C9B21C447C
:104FF00003F8011B9C42FBD170BC7047144603466A
:10500000C2E700BF014804F027B800BFB00F40203E
:10501000014804F023B800BFB00F402038B5074C5A
:105020000023054608462360FBF7FCFF431C00D025
:1050300038BD2368002BFBD02B6038BDC40F402047
:1050400000290CBF022200224FF4806300F000B858
:105050002DE9F043614C256883B004460F46904625
:105060001E4615B1AB6B002B64D0B8F1020F06D011
:10507000B8F1010F00F29F80002EC0F29C80636E99
:10508000D80734D52146284603F0BCFB216B41B13B
:1050900004F14003994202D0284603F031FD002379
:1050A0002363B4F90C300022A26162601A063AD47C
:1050B00023F44A6323F00303B8F1020FA3811DD048
:1050C00001AB6A462146284603F0CAFFA38918436C
:1050D000A081002E32D1009E3046FFF7EBFB074641
:1050E00000286BD0A38943F08003A38128E0A38923
:1050F0009905C7D4A06D03F0AFFFC3E70025616E2B
:10510000002604F1430243F002030120A660CE070B
:10511000A38122602261606101D498053ED52846B2
:1051200003B0BDE8F0832169284603F0E9FCB4F937
:105130000C30BDE7284603F0BDFB96E7002FCBD02F
:10514000AB6B002B33D0009BB4F90C2027609E4240
:105150001CBF42F40062A281B8F1010F04BF42F00B
:105160000102A28192B212F00803276166610ED09B
:10517000D1071AD5656E7642002315F00105A661A8
:10518000A36009D00025284603B0BDE8F083A360E2
:10519000656E15F00105F5D19305C0D4A06D03F03F
:1051A0005DFF284603B0BDE8F083A660F0E728461F
:1051B00003F080FBC7E74FF0FF35B0E7DDF8009064
:1051C000B14504D04846FFF775FB074620B9B4F94E
:1051D0000C304FF0FF3592E74E4683E764014020E4
:1051E0000EB4F0B59CB021AB0F4953F8042B0193DA
:1051F00005466FF00044086802954FF402774FF6B9
:10520000FF7602A90695ADF8147004940794ADF8E2
:10521000166000F02DF9029B00221A701CB0BDE848
:10522000F04003B0704700BF640140200000000060
:10523000000000000000000000000000000000006E
:1052400090F800F06DE9024520F007016FF0000CC6
:1052500010F0070491F820F040F049804FF000046E
:105260006FF00700D1E9002391F840F000F1080049
:1052700082FA4CF2A4FA8CF283FA4CF3A2FA8CF381
:105280004BBBD1E9022382FA4CF200F10800A4FAE8
:105290008CF283FA4CF3A2FA8CF3E3B9D1E904233C
:1052A00082FA4CF200F10800A4FA8CF283FA4CF373
:1052B000A2FA8CF37BB9D1E9062301F1200182FA2D
:1052C0004CF200F10800A4FA8CF283FA4CF3A2FA33
:1052D0008CF3002BC6D0002A04BF04301A4612BA41
:1052E000B2FA82F2FDE8024500EBD2007047D1E944
:1052F000002304F00305C4F100004FEAC50514F0D3
:10530000040F91F840F00CFA05F562EA05021CBFA3
:1053100063EA050362464FF00004A9E72DE9F84F60
:10532000DDF828900F46804616461D468A4600E066
:10533000A2465446484614F801BB03F077FE584491
:10534000427812F00802F3D1BBF12D0F4FD0BBF120
:105350002B0F04BF94F800B00AF102041DB1102D08
:1053600056D0AC4604E0BBF1300F60D00A25AC4605
:10537000002A0CBF6FF000494FF000490021B9FB33
:10538000FCFE08460CFB1E9A05E029D00CFB003001
:10539000012114F801BBABF13003092B05D9ABF1A6
:1053A0004103192B0BD8ABF137039D420FDDB1F14F
:1053B000FF3FEED08645E8D24FF0FF31E9E7ABF191
:1053C0006103192B03D8ABF157039D42EFDC4B1C53
:1053D00013D002B1404246B1C1B93760BDE8F88F81
:1053E0009A45D3DA4FF0FF31D3E7BDE8F88F94F850
:1053F00000B001220AF10204B0E72223C8F800300D
:10540000EEB1671E48463760BDE8F88F8146F8E781
:10541000BBF1300FA5D1237803F0DF03582BA0D1C7
:105420004FF0100C94F801B065460234A0E72378E1
:1054300003F0DF03582BF3D00825AC4698E7484625
:10544000BDE8F88F30B5084C084B25686C6B83B00D
:10545000002C08BF1C46009413460A460146284605
:10546000FFF75CFF03B030BD64014020A409402079
:105470002DE9F04FC3B00C460B9192460F930C9060
:1054800003F0D8FD03681A931846FFF7D9FEA389E5
:105490001990190603D52369002B01F0038000231E
:1054A0000DF1C8091393159314932793269318931A
:1054B0001B930993CDF89490C846169317939AF8C6
:1054C00000305446E3B1252B02D119E0252B03D03F
:1054D00014F8013F002BF9D1A4EB0A0585B1269BF6
:1054E000279AC8F800A001332A44072BC8F80450B3
:1054F000279226937FDC08F10808099B2B44099327
:105500002378002B7FD000231A468DF87730194678
:105510000D939B464FF0FF3063780A9004F1010A27
:105520000AF1010AA3F12000582800F2C183DFE844
:1055300010F03802BF03BF034002BF03BF03BF0325
:10554000BF03BF03BF0345020302BF035D006B023D
:10555000BF0386029D039D039D039D039D039D0341
:105560009D039D039D03BF03BF03BF03BF03BF0391
:10557000BF03BF03BF03BF03BF0337035703BF030B
:105580005703BF03BF03BF03BF039803BF03BF039A
:10559000AD03BF03BF03BF03BF03BF035902BF0374
:1055A000BF031E03BF03BF03BF03BF03BF03BF038C
:1055B000BF03BF03BF03BF03C602DB02570357038A
:1055C00057038B02DB02BF03BF039002BF039D02A0
:1055D000CC01B4020802BF03E101BF037E00BF0398
:1055E000BF030D020D980F9340420D904BF0040B3A
:1055F0009AF8003094E725AA0B990C9804F058FB10
:1056000040B9C84679E7279B23B10C980B9925AA86
:1056100004F04EFB0B9B9B8913F0400F099B18BFB6
:105620004FF0FF330993099843B0BDE8F08F1BF0AA
:10563000200F119340F0DD810F9A1BF0100F1346DD
:1056400040F06E851BF0400F00F06A85148804322C
:10565000002501230F9200278DF877700A994A1CC4
:1056600000F065822BF08002079254EA050240F0B8
:105670006482002940F03C84002B40F0D7841BF06A
:1056800001030E9300F0048642AE302306F8413D3C
:105690000A9B0E9A9342B8BF1346089300231293B5
:1056A00017B1089B01330893079B13F00203109373
:1056B00002D0089B02330893079B13F0840540F047
:1056C0000E830D9B089AA3EB020BBBF1000F40F376
:1056D0000683BBF1100F279C269A29DD43462146FD
:1056E000A84610270C9C0B9D06E0ABF1100BBBF1FC
:1056F000100F03F1080318DD0132B748269210316C
:10570000072A279183E88100EFDD25AA2946204654
:1057100004F0CEFA00287FF47DAFABF1100BBBF1A3
:10572000100F2799269A4B46E6DC45460C469846CC
:105730000132A94B26925C44072A279488E808087E
:1057400000F398849DF8777008F1080877B1269BDC
:10575000013301340DF177010122072B27942693A1
:1057600088E8060000F3DB8308F10808109B6BB1A2
:10577000269B013302341EA90222072B279426936D
:1057800088E8060000F3D68308F10808802D00F0B1
:1057900015830A9B0E9A9F1A002F36DD102F269B29
:1057A0008E4D27DD42462146B0464FF0100B2E4667
:1057B0000C9C0B9D04E0103F102F02F1080215DD38
:1057C00001331031072B2791269382E84008F2DD40
:1057D00025AA2946204604F06BFA00287FF41AAF68
:1057E000103F102F2799269B4A46E9DC35460C4688
:1057F0004646904601333C44072B2794269388E87D
:10580000A00000F3818308F10808079BDF0500F181
:105810006882269B0E99C8F8006001330C44072B60
:105820002794C8F80410269300F34D8308F1080864
:10583000079B5B073AD50D9B089A9D1A002D35DD15
:10584000102D269B20DD10260C9FDDF82CB004E0E7
:10585000103D102D08F1080816DD01335E4A26932D
:105860001034072B279488E84400F1DD25AA594617
:10587000384604F01DFA00287FF4CCAE103D102D00
:10588000279C269BC846E8DC0133534A26932C44C8
:10589000072B279488E8240008DD25AA0B990C988B
:1058A00004F006FA00287FF4B5AE279C099B0D9AF8
:1058B00008998A42ACBF9B185B180993002C40F0F2
:1058C0000D8300232693C846F9E511931BF02003AE
:1058D00040F0E3811BF0100240F02E841BF04003E7
:1058E00000F02A840F9913460A4604320C880F925E
:1058F0000025B0E60F9A1193166800248DF87740C2
:10590000151D002E00F0A7860A9A531C00F0098688
:105910002146304603F034FC002800F0E186831B6A
:105920000E930A940F95CDF81CB023EAE373089305
:1059300012949DF87770B3E69AF8003001222B217B
:10594000EEE54BF0200B9AF80030E9E51193002AC0
:1059500040F09587224B18931BF0200F40F01181E7
:105960000F9A1BF0100F134640F0E1831BF0400F1D
:1059700000F0DD83043314880F9300251BF0010F22
:1059800000F00C8154EA050300F0088130239DF8F3
:1059900044208DF878308DF879204BF0020B0223EB
:1059A00059E69AF8003000297FF4BAAD012220218F
:1059B000B6E54BF0010B9AF80030B1E50F9C236877
:1059C0000D9318460028234603F10403FFF60AAEA0
:1059D0000F939AF80030A3E560A6400070A640003F
:1059E00040A640004BF0100B1BF0200F11933FF42A
:1059F00023AE0F9D073525F0070303F10802D3E915
:105A000000450F92012326E69AF800302A2B0AF16E
:105A1000010400F02787A3F130000928A24600F214
:105A2000AD8600231C461AF8013B04EB840400EB0E
:105A30004404A3F130000928F5D90A9472E54BF02B
:105A4000800B9AF800306BE54BF0400B9AF8003071
:105A500066E59AF800306C2B03BF9AF801304BF0E2
:105A6000200B0AF1010A4BF0100B59E5002A40F017
:105A700011871BF0200F40F0F9841BF0100F40F04D
:105A8000AC841BF0400F00F0A8840F9A1368043216
:105A90000F92BDF824201A8011E50F99B34B0C68C2
:105AA00018933022782304318DF8793011934BF01C
:105AB000020B0F9100258DF878200223CBE50F997A
:105AC00011930A688DF8A02000230A461F468DF81E
:105AD0007730043201230893CDF81CB00A9712974F
